:1000000003308A00D82B0000CC32633A7539611076
:10001000653720265321A0396537F3377210311028
:100020002010251A4C320D050000D630EC37721026
:100030006537203B6F36F430EA32A0396537F33745
:100040007210311025192E194C330D050A00CC32CF
:10005000633A75396110653720265321A039653719
:10006000F337721032102010251A4C320D050001A2
:10007000D630EC3772106537203B6F36F430EA32F9
:10008000A0396537F3377210321025192E194C3309
:100090000D050A008E30F7002F08F8002E08F90031
:1000A000FA01F808031D5E287908F800F901083004
:1000B000F702F808031D5E28F70166280310F81BF5
:1000C0006528F90DF80DF7035E28F81308003B08C2
:1000D0000319D728C3003F080319D728C3070318FB
:1000E00078287F30C302031CD7280319D7287C281F
:1000F0008130C3070318D7284308F700F801F90136
:10010000FA013C08C700C7173D08C6003E08C500F5
:100110001830C300C401451CA5284208FA07031C77
:100120009728F90A031D9728F80A0319C4174108EC
:10013000F907031C9E28F80A0319C4174008BD00DC
:10014000BD173D08F8070318C417C40DF80CF90CC7
:10015000FA0CC70CC60CC50C0310C30B8A2801305F
:10016000F7070318D728F81BBC28C70DFA0DF90D9F
:10017000F80DF7030319D728C71FCD28FA0A031D66
:10018000CD28F90A031DCD28F80A031DCD28F80C47
:10019000F90CFA0CF70A0319D7283C08C4004008E8
:1001A000C406C41FD528F817DB28F813DB28F7018D
:1001B000F801F901FA01080032080319A129BE006B
:1001C00036080319A129BE02031CEB287F30BE07A5
:1001D0000318A129F1288130BE02031CA1290319AB
:1001E000A1293E08F700F801F901FA01BD01330821
:1001F000BC00BC173408BB003508BA001930BE007B
:100200003908BA02031814290130BB020318142953
:10021000BC0203181429BD0203181429BD0ABC0A24
:10022000BB0A3908BA0746293808BB0203182F2928
:100230000130BC0203182F29BD0203182F29BD0A63
:10024000BC0A3808BB073908BA07031C4629BB0A91
:10025000031D4629BC0A031D4629BD0A4629370845
:100260008038BC02031845290130BD020318452916
:10027000BD0A37088038BC073808BB07031C232990
:10028000BC0A031D2329BD0A23297A14BE0B492960
:1002900054290310BA0DBB0DBC0DBD0D0310FA0D92
:1002A000F90DF80DBF0D00293F1C5C290310F80C57
:1002B000F90CFA0CBF0C5F29F7030319A129BF1B26
:1002C00088290310BA0DBB0DBC0DBD0D3908BA024B
:1002D000031874290130BB0203187429BC020318E7
:1002E0007429BD02031C97293808BB0203187F2913
:1002F0000130BC0203187F29BD02031C972937086F
:100300008038BC02031888290130BD02031C9729DC
:10031000FA0A031D9729F90A031D9729F80A031DF4
:100320009729F70A0319A129F80CF90CFA0C3308DC
:10033000BE003708BE06BE1F9F29F817A529F8136F
:10034000A529F701F801F901FA010800831603173E
:100350008C170C14000000000318D62983120C0817
:100360007F390313AF0003170D080313B000031701
:100370000F080313B1002F080C1EBC299900300888
:1003800003178D000313310803178F0083168C1792
:100390000C140000000083120313AE0BD029D329E4
:1003A00083160317D629F5298316031783120C0D1C
:1003B0000E0D7F390313AF0003170D080313B000B0
:1003C00003170F080313B1002F080C1EE52999002D
:1003D000300803178D000313310803178F008D0AAF
:1003E00003198F0A0313AE0BA6290800B6010408EF
:1003F000B5003610831B3614AF1F062AB517351EFD
:10040000B50AAE09AF09AE0A0319AF0A2F0EF038CC
:10041000B100B107E23EB200323EB4002F080F39FE
:10042000B207B207B407E93EB300B307B3072E0E15
:100430000F39B307B407B30DB40DB409B40D2E08CA
:100440000F39B407B10D0730B0000A30B407B30359
:10045000031C262AB307B203031C2A2AB207B103DE
:10046000031C2E2AB107B003031C322A303084004B
:10047000831307303505351384033505031D472ADB
:10048000351A840A351A472A2030F700642A84076F
:1004900034300402031935170008F700031D582AE9
:1004A000351B582A351A682AB519582A2030632A6C
:1004B000B51F602A2D30F70084033513B513642A65
:1004C000B51535123030F70777080C1E652A9900EC
:1004D000840A351F482A0800F701F801F901FA01DA
:1004E000C301C401C501C6014208410440043F04E0
:1004F0000319AA2A2030C7000310BB0DBC0DBD0D87
:10050000BE0DC30DC40DC50DC60D42084602031D28
:10051000932A41084502031D932A40084402031D03
:10052000932A3F084302031CA42A3F08C302400841
:10053000031C400FC4024108031C410FC5024208BE
:10054000031C420FC6020314F70DF80DF90DFA0D46
:10055000C70B7C2A43308400831308000408B300CF
:100560003208B5000319CD2A3108BE003008BD009D
:100570002F08BC002E08BB00C201C1012030C00002
:100580008230BF0067207A08B1007908B00078088F
:10059000AF007708AE00B50BB42A3108BE003008B2
:1005A000BD002F08BC002E08BB003B08B63CBB00BA
:1005B000FA013C08BF00BC170310BC0CBD0CBE0CFC
:1005C000FA0CF90CF80CF70CBB0BDC2ABF1FF32A52
:1005D000F709F809F909FA09F70A0319F80A0319DA
:1005E000F90A0319FA0A7A08B1007908B000780804
:1005F000AF007708AE00B11F0A2BB303B316AE09E4
:10060000AF09B009B109AE0A0319AF0A0319B00A5C
:100610000319B10A3B30BA009A30B900CA30B800A9
:10062000B7010A30B50032080319B30A3108BE0019
:100630003008BD002F08BC002E08BB003A08C200DD
:100640003908C1003808C0003708BF006C22000814
:10065000AE00840A0008AF00840A0008B000840AD3
:100660000008B100FD308407F708031D4A2B320A49
:10067000350203194A2B330803194C2B0F39350265
:100680000319442B0318802BB31B802B331B4C2BDB
:1006900020307B2B2030B305B31E5B2BB312320806
:1006A000031DB3037708B3002D300C1E552B9900A2
:1006B0003308F700B30132083502031D6A2B7708AF
:1006C000B3002E300C1E622B99003308F700203047
:1006D000B30500303030B31E7B2BB3123208031D3C
:1006E000B3037708B3002D300C1E742B9900330828
:1006F000F700B3013030F70777080C1E7D2B990007
:100700003A08BE003908BD003808BC003708BB00F5
:10071000C201C101C0010A30BF006C227A08BA00D0
:100720007908B9007808B8007708B700B50B162B20
:1007300008002F08B6003308B606B61FA42B031115
:100740000310AF1B0314D72B2F08B6003208B700D5
:100750002E08B7020319B22BB61FD72B0308013A94
:100760008300D72B3308B7002F08B7020319BE2B1D
:10077000B61FD72B0308013A8300D72B3408B700E4
:100780003008B7020319CA2BB61FD72B0308013A4A
:100790008300D72B3508B7003108B7020319D62BD1
:1007A000B61FD72B0308013A8300D72B031008008C
:1007B000840183131F308305193083169900A630F6
:1007C000980090308312980083161F149F141F15F1
:1007D0009F1107309C008312A001A101831686019E
:1007E0008312860183161F109F101F119F111F1067
:1007F0009F141F159F151F1383121F179F17831612
:100800009F1783121F140030F8001F08C73978049F
:100810009F001F151F190A2C83161E088312A200A1
:100820001E08A3002308AF002208AE004A207A0861
:10083000BE007908BD007808BC007708BB00C20183
:10084000C1012030C0008130BF0067207708AE00B2
:100850007808AF007908B0007A08B100B5007908CF
:10086000B4007808B3007708B200B901C030B8000E
:100870007F30B7008830B600DC207A08A9007908FC
:10088000A8007808A7007708A6000830F8001F081D
:10089000C73978049F001F151F194C2C83161E089A
:1008A0008312A4001E08A5002508AF002408AE008E
:1008B0004A207A08BE007908BD007808BC00770895
:1008C000BB00C201C1012030C0008130BF006720E1
:1008D0007708AE007808AF007908B0007A08B10058
:1008E000B5007908B4007808B3007708B200B90100
:1008F000C030B8007F30B7008830B600DC207A08FE
:10090000AD007908AC007808AB007708AA00043085
:1009100003178D0000308F0003101A300313AE0050
:10092000A621023084002308AF002208AE00F62181
:100930000D300C1E992C99000A300C1E9D2C99002C
:10094000153003178D0000308F0003101A30031389
:10095000AE00A621893084002908B1002808B00023
:100960002708AF002608AE000230B200AE220D30DC
:100970000C1EB82C99000A300C1EBC2C99000A30B1
:100980000C1EC02C9900273003178D0000308F00FB
:1009900003101A300313AE00A6210230840025088C
:1009A000AF002408AE00F6210D300C1ED52C9900A6
:1009B0000A300C1ED92C9900383003178D000030F6
:1009C0008F0003101A300313AE00A6218930840073
:1009D0002D08B1002C08B0002B08AF002A08AE008B
:1009E0000230B200AE220D300C1EF42C99000A30F9
:1009F0000C1EF82C99000A300C1EFC2C99002908BA
:100A0000B1002808B0002708AF002608AE009A30D1
:100A1000B5009930B4001930B3007D30B20099238D
:100A2000031C142D0614152D0610B101B001AF01E1
:100A30007E30AE002D08B5002C08B4002B08B300A2
:100A40002A08B2009923031C272D8614282D86100E
:040A5000032C630010
:02400E00713F00
:00000001FF
;PIC16F877A
;CRC=8FED  CREATED="04-may.-20 16:26"
