:1000000000308A0083280000FF00030E8301A10056
:100010000A08A0008A010408A2007708A300780853
:10002000A4007908A5007A08A600831383128B1E0A
:100030001B280B192C28220884002308F700240809
:10004000F8002508F9002608FA0020088A00210E89
:100050008300FF0E7F0E09008A110A122F288101EA
:100060000B118A110A121B282C08F8012B02031805
:100070003C282B08F7004828F7010830AD00AB0DED
:10008000F70D2C0877020318F700F80DAD0B3F2889
:10009000080078082908AB006430AC0034207708E9
:1000A000A90078083030031D5C28AA1C6428AA190E
:1000B00064282A1A20305F28AA112A122A14F80765
:1000C00078080C1E612899002908AB000A30AC00A2
:1000D00034207708A90078083030031D7528AA1944
:1000E0007A282A1C7A282A1A2030F80778080C1E49
:1000F000772899003030A90729080C1E7D2899001F
:100100008A110A12AE28840183131F308305083038
:1001100083169900A23098009030831298008316BD
:100120001F149F141F159F1107309C000108C73929
:1001300038388100831281018B16C0308B0401088E
:10014000A7002708A8000108A7002808270203190C
:10015000B8282708A9001330AA0049280D300C1E22
:10016000AF2899000A300C1EB32899002708A80070
:04017000A32863005D
:02400E007A3FF7
:00000001FF
;PIC16F877A
;CRC=3BB9  CREATED="21-may.-20 13:11"
