:1000000000308A003A280000FF00030E8301A1009F
:100010000A08A0008A010408A2007708A300780853
:10002000A4007908A5007A08A600831383128B1E0A
:100030001B280B192C28220884002308F700240809
:10004000F8002508F9002608FA0020088A00210E89
:100050008300FF0E7F0E09008A110A122F288316D3
:100060000610013083128606E33081000B118A11DD
:100070000A121B28840183131F30830583161F1463
:100080009F141F159F1107309C000108C0390338C9
:100090008100E330831281008B16C0308B044F281F
:0200A0006300FB
:02400E00711F20
:00000001FF
;PIC16F877A
;CRC=2380  CREATED="28-may.-20 13:24"
