:1000000003308A00B02B0000CC32633A753961109E
:10001000653720265321A0396537F3377210311028
:100020002010251A4C320D050000D630EC37721026
:100030006537203B6F36F430EA32A0396537F33745
:100040007210311025192E194C330D050A00CC32CF
:10005000633A75396110653720265321A039653719
:10006000F337721032102010251A4C320D050001A2
:10007000D630EC3772106537203B6F36F430EA32F9
:10008000A0396537F3377210321025192E194C3309
:100090000D050A002F3084008313000803195E2821
:1000A0000130F800F701F70B5328F80B52284A30BB
:1000B000F700F70B59285C28800B50288A110A1288
:1000C000E22B8E30F7002F08F8002E08F900FA0115
:1000D000F808031D75287908F800F9010830F702BF
:1000E000F808031D7528F7017D280310F81B7C28EC
:1000F000F90DF80DF7037528F81308003B080319EC
:10010000EE28C3003F080319EE28C30703188F2801
:100110007F30C302031CEE280319EE289328813098
:10012000C3070318EE284308F700F801F901FA01A4
:100130003C08C700C7173D08C6003E08C500183078
:10014000C300C401451CBC284208FA07031CAE28A2
:10015000F90A031DAE28F80A0319C4174108F90764
:10016000031CB528F80A0319C4174008BD00BD17C1
:100170003D08F8070318C417C40DF80CF90CFA0C65
:10018000C70CC60CC50C0310C30BA1280130F70720
:100190000318EE28F81BD328C70DFA0DF90DF80D3A
:1001A000F7030319EE28C71FE428FA0A031DE42801
:1001B000F90A031DE428F80A031DE428F80CF90CD9
:1001C000FA0CF70A0319EE283C08C4004008C406DC
:1001D000C41FEC28F817F228F813F228F701F801E9
:1001E000F901FA01080032080319B829BE003608DF
:1001F0000319B829BE02031C02297F30BE07031869
:10020000B82908298130BE02031CB8290319B8296E
:100210003E08F700F801F901FA01BD013308BC00FE
:10022000BC173408BB003508BA001930BE003908C5
:10023000BA0203182B290130BB0203182B29BC0278
:1002400003182B29BD0203182B29BD0ABC0ABB0ABF
:100250003908BA075D293808BB020318462901305E
:10026000BC0203184629BD0203184629BD0ABC0A70
:100270003808BB073908BA07031C5D29BB0A031DF0
:100280005D29BC0A031D5D29BD0A5D293708803838
:10029000BC0203185C290130BD0203185C29BD0AA9
:1002A00037088038BC073808BB07031C3A29BC0A4A
:1002B000031D3A29BD0A3A297A14BE0B60296B291D
:1002C0000310BA0DBB0DBC0DBD0D0310FA0DF90DD9
:1002D000F80DBF0D17293F1C73290310F80CF90CFA
:1002E000FA0CBF0C7629F7030319B829BF1B9F2905
:1002F0000310BA0DBB0DBC0DBD0D3908BA020318B1
:100300008B290130BB0203188B29BC0203188B29EF
:10031000BD02031CAE293808BB0203189629013020
:10032000BC0203189629BD02031CAE293708803889
:10033000BC0203189F290130BD02031CAE29FA0A32
:10034000031DAE29F90A031DAE29F80A031DAE29C3
:10035000F70A0319B829F80CF90CFA0C3308BE0097
:100360003708BE06BE1FB629F817BC29F813BC29EA
:10037000F701F801F901FA010800831603178C1739
:100380000C14000000000318ED2983120C087F39BB
:100390000313AF0003170D080313B00003170F0872
:1003A0000313B1002F080C1ED3299900300803173E
:1003B0008D000313310803178F0083168C170C145C
:1003C0000000000083120313AE0BE729EA2983160D
:1003D0000317ED290C2A8316031783120C0D0E0D3B
:1003E0007F390313AF0003170D080313B000031781
:1003F0000F080313B1002F080C1EFC2999003008C8
:1004000003178D000313310803178F008D0A03199A
:100410008F0A0313AE0BBD290800B6010408B5000E
:100420003610831B3614AF1F1D2AB517351EB50AAB
:10043000AE09AF09AE0A0319AF0A2F0EF038B100AA
:10044000B107E23EB200323EB4002F080F39B207C6
:10045000B207B407E93EB300B307B3072E0E0F3956
:10046000B307B407B30DB40DB409B40D2E080F399A
:10047000B407B10D0730B0000A30B407B303031C52
:100480003D2AB307B203031C412AB207B103031C80
:10049000452AB107B003031C492A30308400831376
:1004A00007303505351384033505031D5E2A351ADB
:1004B000840A351A5E2A2030F7007B2A84073430FC
:1004C0000402031935170008F700031D6F2A351BB6
:1004D0006F2A351A7F2AB5196F2A20307A2AB51F5C
:1004E000772A2D30F70084033513B5137B2AB51511
:1004F00035123030F70777080C1E7C2A9900840AE1
:10050000351F5F2A0800F701F801F901FA01C3015C
:10051000C401C501C6014208410440043F04031957
:10052000C12A2030C7000310BB0DBC0DBD0DBE0D90
:10053000C30DC40DC50DC60D42084602031DAA2AEF
:1005400041084502031DAA2A40084402031DAA2AA5
:100550003F084302031CBB2A3F08C3024008031C98
:10056000400FC4024108031C410FC5024208031C8E
:10057000420FC6020314F70DF80DF90DFA0DC70B63
:10058000932A43308400831308000408B300320820
:10059000B5000319E42A3108BE003008BD002F0859
:1005A000BC002E08BB00C201C1012030C000823057
:1005B000BF007E207A08B1007908B0007808AF004B
:1005C0007708AE00B50BCB2A3108BE003008BD005D
:1005D0002F08BC002E08BB003B08B63CBB00FA014C
:1005E0003C08BF00BC170310BC0CBD0CBE0CFA0CC1
:1005F000F90CF80CF70CBB0BF32ABF1F0A2BF709F9
:10060000F809F909FA09F70A0319F80A0319F90AA6
:100610000319FA0A7A08B1007908B0007808AF0027
:100620007708AE00B11F212BB303B316AE09AF0993
:10063000B009B109AE0A0319AF0A0319B00A0319C8
:10064000B10A3B30BA009A30B900CA30B800B701DD
:100650000A30B50032080319B30A3108BE00300869
:10066000BD002F08BC002E08BB003A08C2003908A4
:10067000C1003808C0003708BF0083220008AE0060
:10068000840A0008AF00840A0008B000840A000849
:10069000B100FD308407F708031D612B320A3502D3
:1006A0000319612B33080319632B0F393502031922
:1006B0005B2B0318972BB31B972B331B632B20301B
:1006C000922B2030B305B31E722BB3123208031DD8
:1006D000B3037708B3002D300C1E6C2B9900330840
:1006E000F700B30132083502031D812B7708B300F0
:1006F0002E300C1E792B99003308F7002030B305FB
:1007000000303030B31E922BB3123208031DB303F6
:100710007708B3002D300C1E8B2B99003308F7009F
:10072000B3013030F70777080C1E942B99003A0874
:10073000BE003908BD003808BC003708BB00C20144
:10074000C101C0010A30BF0083227A08BA007908CB
:10075000B9007808B8007708B700B50B2D2B080052
:10076000840183131F308305193083169900A63046
:10077000980090308312980083161F149F141F1541
:100780009F1107309C008312A001A10183161F1046
:100790009F101F119F111F109F141F159F151F13CE
:1007A00083121F179F1783169F1783121F14003081
:1007B000F8001F08C73978049F000430AE00FA30F3
:1007C000AF004A28AE0BDF2B1F151F19E52B831630
:1007D0001E088312A2001E08A3002308AF002208EF
:1007E000AE0061207A08BE007908BD007808BC0020
:1007F0007708BB00C201C1012030C0008130BF00BA
:100800007E207708AE007808AF007908B0007A083B
:10081000B100B5007908B4007808B3007708B200D9
:10082000B901C030B8007F30B7008830B600F3207F
:100830007A08A9007908A8007808A7007708A60018
:100840000830F8001F08C73978049F001F151F19CA
:10085000272C83161E088312A4001E08A500250855
:10086000AF002408AE0061207A08BE007908BD0000
:100870007808BC007708BB00C201C1012030C0006D
:100880008130BF007E207708AE007808AF0079087D
:10089000B0007A08B100B5007908B4007808B30058
:1008A0007708B200B901C030B8007F30B700883097
:1008B000B600F3207A08AD007908AC007808AB00E8
:1008C0007708AA00043003178D0000308F00031052
:1008D0001A300313AE00BD21023084002308AF009C
:1008E0002208AE000D220D300C1E742C99000A3027
:1008F0000C1E782C9900153003178D0000308F00E6
:1009000003101A300313AE00BD218930840029087A
:10091000B1002808B0002708AF002608AE0002305A
:10092000B200C5220D300C1E932C99000A300C1E0B
:10093000972C99000A300C1E9B2C99002730031726
:100940008D0000308F0003101A300313AE00BD215C
:10095000023084002508AF002408AE000D220D30BF
:100960000C1EB02C99000A300C1EB42C99003830A3
:1009700003178D0000308F0003101A300313AE00F0
:10098000BD21893084002D08B1002C08B0002B084F
:10099000AF002A08AE000230B200C5220D300C1E96
:1009A000CF2C99000A300C1ED32C99000A300C1E53
:0809B000D72C9900D72B63003E
:02400E00713F00
:00000001FF
;PIC16F877A
;CRC=EA5F  CREATED="30-abr.-20 16:39"
