:1000000000308A0019280000223084008313000881
:10001000031918280130F800F701F70B0D28F80B29
:100020000C284A30F700F70B13281628800B0A28F3
:100030000800840183131F30830583161F149F1447
:100040001F159F1107309C00FF308312A100A001F3
:100050002008083C031C44280130A2002008F800B6
:10006000031936280310A20DF80B322883168601D7
:100070008312220886002008073C031C42286430B3
:10008000A2000420A00A2828A0012008023C031C8A
:100090005F280130A2002008F8000319532803103C
:1000A000A20DF80B4F280030A100831687018312A0
:1000B000220887006430A2000420A00A45282728CF
:0200C0006300DB
:02400E00713F00
:00000001FF
;PIC16F877A
;CRC=D9DE  CREATED="28-abr.-20 19:48"
