:1000000003308A00F82B000033308400831300088B
:10001000031918280130F800F701F70B0D28F80B29
:100020000C284A30F700F70B13281628800B0A28F3
:1000300008001030B800F701FA01B50CB40C031C2D
:1000400027283608F7070318FA0A3708FA07FA0CC0
:10005000F70CF90CF80CB80B1D2808008E30F700CF
:100060003508F8003408F900FA01F808031D4228A1
:100070007908F800F9010830F702F808031D422852
:10008000F7014A280310F81B4928F90DF80DF7036A
:100090004228F8130800360803191029C2003A084C
:1000A00003191029C202031C5A287F30C207031803
:1000B000102960288130C202031C1029031910295D
:1000C0004208F700F801F901FA01C1013708C00040
:1000D000C0173808BF003908BE001930C2003D08FB
:1000E000BE02031883280130BF0203188328C00210
:1000F00003188328C10203188328C10AC00ABF0A53
:100100003D08BE07B5283C08BF0203189E280130F1
:10011000C00203189E28C10203189E28C10AC00A03
:100120003C08BF073D08BE07031CB528BF0A031DD6
:10013000B528C00A031DB528C10AB5283B08803878
:10014000C0020318B4280130C1020318B428C10A40
:100150003B088038C0073C08BF07031C9228C00A30
:10016000031D9228C10A92287A14C20BB828C3280A
:100170000310BE0DBF0DC00DC10D0310FA0DF90D1A
:10018000F80DC30D6F28431CCB280310F80CF90C95
:10019000FA0CC30CCE28F70303191029C31BF72848
:1001A0000310BE0DBF0DC00DC10D3D08BE020318EA
:1001B000E3280130BF020318E328C0020318E32834
:1001C000C102031C06293C08BF020318EE280130B7
:1001D000C0020318EE28C102031C06293B08803820
:1001E000C0020318F7280130C102031C0629FA0ACD
:1001F000031D0629F90A031D0629F80A031D06290D
:10020000F70A03191029F80CF90CFA0C3708C20088
:100210003B08C206C21F0E29F8171429F813142927
:10022000F701F801F901FA010800430803198529CB
:10023000CB00470803198529CB07031826297F30EF
:10024000CB02031C8529031985292A298130CB0774
:10025000031885294B08F700F801F901FA01440851
:10026000CF00CF174508CE004608CD001830CB0090
:10027000CC014D1C53294A08FA07031C4529F90AE9
:10028000031D4529F80A0319CC174908F907031C6F
:100290004C29F80A0319CC174808C500C5174508AA
:1002A000F8070318CC17CC0DF80CF90CFA0CCF0C8E
:1002B000CE0CCD0C0310CB0B38290130F7070318F7
:1002C0008529F81B6A29CF0DFA0DF90DF80DF703F2
:1002D00003198529CF1F7B29FA0A031D7B29F90AF7
:1002E000031D7B29F80A031D7B29F80CF90CFA0C75
:1002F000F70A031985294408CC004808CC06CC1F0E
:100300008329F8178929F8138929F701F801F901D8
:10031000FA01080080308318BB06C001C10137080C
:10032000BF003B08BF06360803197A2ABE00F70053
:100330003A080319832ABE0203191F2A031CDD2968
:100340003B08C400C4173C08C3003D08C200C101FB
:100350000310C40CC30CC20CC10CBE0BA729BF1FD9
:10036000B4294014972A40103E10401639308400BA
:100370008313AC2A4012BF1BC7293E1CD229C40CD0
:10038000C30CC20CC10CF70A0319922AD229C41B50
:10039000D5290310C10DC20DC30DC40DF7030319F8
:1003A000922AC72940173F2A40133708BF00BF1FB2
:1003B000DB29C4178B2AC4138B2A3A08BE00F70026
:1003C0003608BE023708C400C4173808C30039080D
:1003D000C200C1010310C40CC30CC20CC10CBE0B83
:1003E000E929BF1FF629C014972AC0103E10C01675
:1003F0003D3084008313AC2AC012BF1B092A3E1C67
:10040000142AC40CC30CC20CC10CF70A0319922A9B
:10041000142AC41B172A0310C10DC20DC30DC40D2D
:10042000F7030319922A092AC0173F2AC0133B0871
:10043000BF00BF1F1D2AC4178B2AC4138B2A3B0879
:10044000C400C4173C08C3003D08C200BF1F2C2ACB
:10045000C4134015972A4011C1013E103930840061
:100460008313AC2ABF1B552A3708BF003E1C3F2A06
:10047000C40CC30CC20CC10CF70A0319922AC11F89
:10048000502AC20A031D502AC30A031D502AC40A57
:10049000031D502AC40CC30CC20CF70A0319922A7C
:1004A000401BD429C01B162A742A8030C406C41FDE
:1004B0005D2A972A3B08BF006A2A3708BF00C40894
:1004C000031D6A2AC308031D6A2AC208031D6A2A7B
:1004D000F7018B2AC41B742A0310C10DC20DC30D72
:1004E000C40DF70B6A2A922ABF1F782AC4178B2AD9
:1004F000C4138B2A3A08F7003B08C4003C08C30029
:100500003D08C2008B2A3608F7003708C4003808B7
:10051000C3003908C2004408F8004308F900420843
:10052000FA00CA2AF701F801F901FA01CA2AC10141
:10053000C209C309C409C109C10A031DA52AC20A07
:10054000031DA52AC30A0319C40A4018B329C018F9
:10055000F52940192B2A5A2A0008C207031CB62A7B
:10056000C30A031DB62AC40A03193E1484030008F3
:10057000C307031CBE2AC40A03193E1484030008DF
:10058000801F803AC40703183E14401ABA29C01AC3
:10059000FC29322A0800F701F801F901FA01CB0120
:1005A000CC01CD01CE014A0849044804470403198F
:1005B000092B2030CF000310C30DC40DC50DC60D8F
:1005C000CB0DCC0DCD0DCE0D4A084E02031DF22AE7
:1005D00049084D02031DF22A48084C02031DF22A65
:1005E00047084B02031C032B4708CB024808031C97
:1005F000480FCC024908031C490FCD024A08031CCE
:100600004A0FCE020314F70DF80DF90DFA0DCF0BBA
:10061000DB2A4B308400831308000408BB003A082F
:10062000BD0003192C2B3908C6003808C50037084F
:10063000C4003608C300CA01C9012030C800823096
:10064000C70015217A08B9007908B8007808B70002
:100650007708B600BD0B132B3908C6003808C50053
:100660003708C4003608C3004308B63CC300FA018B
:100670004408C700C4170310C40CC50CC60CFA0C00
:10068000F90CF80CF70CC30B3B2BC71F522BF709C7
:10069000F809F909FA09F70A0319F80A0319F90A16
:1006A0000319FA0A7A08B9007908B8007808B7007F
:1006B0007708B600B91F692BBB03BB16B609B7098B
:1006C000B809B909B60A0319B70A0319B80A031910
:1006D000B90A3B30C2009A30C100CA30C000BF0125
:1006E0000A30BD003A080319BB0A3908C6003808A9
:1006F000C5003708C4003608C3004208CA004108D4
:10070000C9004008C8003F08C700CB220008B60057
:10071000840A0008B700840A0008B800840A0008A8
:10072000B900FD308407F708031DA92B3A0A3D02E2
:100730000319A92B3B080319AB2B0F393D020319F1
:10074000A32B0318DF2BBB1BDF2B3B1BAB2B20305A
:10075000DA2B2030BB05BB1EBA2BBB123A08031D97
:10076000BB037708BB002D300C1EB42B99003B084F
:10077000F700BB013A083D02031DC92B7708BB00F7
:100780002E300C1EC12B99003B08F7002030BB0512
:1007900000303030BB1EDA2BBB123A08031DBB03FE
:1007A0007708BB002D300C1ED32B99003B08F700B7
:1007B000BB013030F70777080C1EDC2B990042088C
:1007C000C6004108C5004008C4003F08C300CA0174
:1007D000C901C8010A30C700CB227A08C2007908D3
:1007E000C1007808C0007708BF00BD0B752B08005A
:1007F000840183131F308305193083169900A630B6
:10080000980090308312980083161F149F141F15B0
:100810009F1107309C008312A001A10183161F10B5
:100820009F101F119F111F1383121F179F178316ED
:100830009F1783121F148316061083120610831647
:100840008610831286100030F8001F08C73978041C
:100850009F0083168610831286100430B200FA308F
:10086000B3000420B20B2F2C1F151F19352C1E08A6
:10087000FA0083161E088312B2001E08B300B500EA
:100880003208B400B7010530B60019207908B3006A
:100890007808B2007908B5007808B4002E207A08EC
:1008A000B9007908B8007808B7007708B600BD012C
:1008B000C030BC007F30BB008830BA004B207A08C3
:1008C000A5007908A4007808A3007708A200831681
:1008D0000610831206140430B200FA30B30004206C
:1008E000B20B6D2C1F151F19732C1E08FA008316EE
:1008F0001E088312B2001E08B300B5003208B4000F
:10090000B7010530B60019207908B3007808B200A5
:100910007908B5007808B4002E207A08B900790863
:10092000B8007808B7007708B600BD01C030BC0039
:100930007F30BB008830BA004B207A08A9007908C4
:10094000A8007808A7007708A600831686108312EF
:1009500086140430B200FA30B3000420B20BAB2C82
:100960001F151F19B12C1E08FA0083161E088312CA
:10097000B2001E08B300B5003208B400B70105305C
:10098000B60019207908B3007808B2007908B500DC
:100990007808B4002E207A08B9007908B8007808E1
:1009A000B7007708B600BD01C030BC007F30BB0087
:1009B0008830BA004B207A08AD007908AC0078087E
:1009C000AB007708AA0083160610831206102508CC
:1009D000C6002408C5002308C4002208C300CA01B9
:1009E000C9012030C8008330C70015217708B20044
:1009F0007808B3007908B4007A08B5002908C60061
:100A00002808C5002708C4002608C300CA01C90178
:100A10002030C8008330C700152183103508B90085
:100A20003408B8003308B7003208B6007A08BD00B1
:100A30007908BC007808BB007708BA008A217708DB
:100A4000B2007808B3007908B4007A08B5002D0820
:100A5000C6002C08C5002B08C4002A08C300CA0120
:100A6000C9012030C8008330C70015218310350824
:100A7000B9003408B8003308B7003208B6007A0865
:100A8000BD007908BC007808BB007708BA008A214D
:100A90007708B2007808B3007908B4007A08B50086
:100AA000B9007908B8007808B7007708B600BD012A
:100AB000BC014030BB008030BA004B207A08B10046
:100AC0007908B0007808AF007708AE002508C600A6
:100AD0002408C5002308C4002208C300CA01C901B4
:100AE0002030C8008330C70015217708B20078088D
:100AF000B3007908B4007A08B50074300C1E7E2D5E
:100B0000990031300C1E822D9900893084003508FF
:100B1000B9003408B8003308B7003208B600023014
:100B2000BA000D230D300C1E932D99000A300C1EB7
:100B3000972D99002908C6002808C5002708C40079
:100B40002608C300CA01C9012030C8008330C7008D
:100B500015217708B2007808B3007908B4007A0844
:100B6000B50074300C1EB22D990032300C1EB62D1B
:100B70009900893084003508B9003408B80033087A
:100B8000B7003208B6000230BA000D230D300C1E3B
:100B9000C72D99000A300C1ECB2D99002D08C600D8
:100BA0002C08C5002B08C4002A08C300CA01C901CB
:100BB0002030C8008330C70015217708B2007808BC
:100BC000B3007908B4007A08B50074300C1EE62D25
:100BD000990033300C1EEA2D9900893084003508C5
:100BE000B9003408B8003308B7003208B600023044
:100BF000BA000D230D300C1EFB2D99000A300C1E7F
:100C0000FF2D990074300C1E032E990070300C1EBD
:100C1000072E9900893084003108B9003008B800E7
:100C20002F08B7002E08B6000230BA000D230D3091
:100C30000C1E182E99000A300C1E1C2E9900232C15
:020C400063004F
:02400E00713F00
:00000001FF
;PIC16F877A
;CRC=7CBA  CREATED="02-jul.-20 13:48"
