:1000000000308A0004280000840183131F30830518
:10001000A101A00183161F149F141F159F11073003
:100020009C00FF308312A400F930A2000130A3002D
:100030002302F800780DF700F70DF70DF830F705FB
:100040007708053892002208831692008312241143
:10005000240883168700831207110C30970083163B
:100060001F109F101F119F111F1383121F179F171F
:1000700083169F1783121F140030F8001F08C7391A
:1000800078049F002130F700F70B44281F151F1933
:10009000472883161E088312A0001E08A10021080D
:1000A000F9002008F800F90CF80CF90CF80CF90C20
:1000B00078089500F90C790C3039F7001708CF391A
:0800C000770497003C2863005F
:02400E00713F00
:00000001FF
;PIC16F877A
;CRC=C46D  CREATED="28-jun.-20 17:36"
