:1000000003308A000E2B0000FF00030E8301A100C5
:100010000A08A0008A010408A2007708A300780853
:10002000A4007908A5007A08A600831383128C30F7
:100030008400801E1D288C1A38288C308400001CF7
:1000400023280C183B288B1E27280B193E28220832
:1000500084002308F7002408F8002508F900260882
:10006000FA0020088A00210E8300FF0E7F0E09008F
:100070008A110A12F1298A110A1241288A110A12D8
:100080004A28B00A0B308F00DB308E000C108A112A
:100090000A12272881010B118A110A122728F70159
:1000A000F801F901FA01D001D101D201D3014F08C1
:1000B0004E044D044C0403198D282030D400031045
:1000C000C80DC90DCA0DCB0DD00DD10DD20DD30D5C
:1000D0004F085302031D76284E085202031D76284E
:1000E0004D085102031D76284C085002031C872836
:1000F0004C08D0024D08031C4D0FD1024E08031CC2
:100100004E0FD2024F08031C4F0FD3020314F70DFA
:10011000F80DF90DFA0DD40B5F28503084008313CD
:1001200008000408C0003F08C200031923293E0844
:10013000CB003D08CA003C08C9003B08C800CF01FD
:10014000CE012030CD008230CC004808031915299B
:10015000D0004C0803191529D0070318B6287F30A2
:10016000D002031C152903191529BA288130D0079C
:10017000031815295008F700F801F901FA01490898
:10018000D400D4174A08D3004B08D2001830D0004E
:10019000D101521CE3284F08FA07031CD528F90A9D
:1001A000031DD528F80A0319D1174E08F907031CB7
:1001B000DC28F80A0319D1174D08CA00CA174A08E3
:1001C000F8070318D117D10DF80CF90CFA0CD40C60
:1001D000D30CD20C0310D00BC8280130F70703183A
:1001E0001529F81BFA28D40DFA0DF90DF80DF703AF
:1001F00003191529D41F0B29FA0A031D0B29F90A23
:10020000031D0B29F80A031D0B29F80CF90CFA0C35
:10021000F70A031915294908D1004D08D106D11F45
:100220001329F8171929F8131929F701F801F90109
:10023000FA017A08BE007908BD007808BC0077088A
:10024000BB00C20B97283E08CB003D08CA003C0803
:10025000C9003B08C8004808B63CC800FA01490874
:10026000CC00C9170310C90CCA0CCB0CFA0CF90C42
:10027000F80CF70CC80B3229CC1F4929F709F809EB
:10028000F909FA09F70A0319F80A0319F90A03190F
:10029000FA0A7A08BE007908BD007808BC00770821
:1002A000BB00BE1F6029C003C016BB09BC09BD0945
:1002B000BE09BB0A0319BC0A0319BD0A0319BE0A09
:1002C0003B30C7009A30C600CA30C500C4010A30AE
:1002D000C2003F080319C00A3E08CB003D08CA000F
:1002E0003C08C9003B08C8004708CF004608CE00BC
:1002F0004508CD004408CC004F200008BB00840A0C
:100300000008BC00840A0008BD00840A0008BE0082
:10031000FD308407F708031DA0293F0A4202031994
:10032000A02940080319A2290F39420203199A296A
:100330000318D629C01BD629401BA2292030D12959
:100340002030C005C01EB129C0123F08031DC003E4
:100350007708C0002D300C1EAB2999004008F7002B
:10036000C0013F084202031DC0297708C0002E309B
:100370000C1EB82999004008F7002030C005003055
:100380003030C01ED129C0123F08031DC0037708BA
:10039000C0002D300C1ECA2999004008F700C0018A
:1003A0003030F70777080C1ED32999004708CB0097
:1003B0004608CA004508C9004408C800CF01CE015C
:1003C000CD010A30CC004F207A08C7007908C6005A
:1003D0007808C5007708C400C20B6C298A110A127C
:1003E000562A8C1EF1291A08A9002908393A031D3A
:1003F000632A83161F109F141F159F151F17831242
:100400001F139F1783169F1783121F140030F800C5
:100410001F08C73978049F001030F700F70B0E2A29
:1004200000001F151F19122A1E08FA0083161E0845
:100430008312BB007A08BC0003103C0CFA003B0C92
:10044000F9007908BB007A08BC008E30F7003C0840
:10045000F8003B08F900FA01F808031D392A790869
:10046000F800F9010830F702F808031D392AF701EE
:10047000412A0310F81B402AF90DF80DF703392A19
:10048000F8137A08AD007908AC007808AB0077085B
:10049000AA00C93084002D08BE002C08BD002B081E
:1004A000BC002A08BB000230BF0091280D300C1E92
:1004B000572A990020300C1E5B2A99000A300C1E26
:1004C0005F2A9900632A8C128A110A122728F701E1
:1004D000F801320803103318F707F70CF80CB318BB
:1004E000F707F70CF80C3319F707F70CF80CB319EA
:1004F000F707F70CF80C331AF707F70CF80CB31AD8
:10050000F707F70CF80C331BF707F70CF80CB31BC5
:10051000F707F70CF80C8A110A12462B3908F80174
:1005200038020318962A3808F700A22AF701083083
:10053000BA00B80DF70D390877020318F700F80D67
:10054000BA0B992A08002030331E3030B40032082C
:10055000F700B21FB22AF709F70A7708B2002D3068
:10056000B400B3173208B8006430B9008E2277089F
:10057000B20030307807B5003208B8000A30B90050
:100580008E2230307707B70030307807B600340855
:10059000F700B31DCD2AB31F3311331ADA2AB31F64
:1005A000F52A3319F52A7708B500B318F52A770824
:1005B000B600F52A30303502031DF52A7708B5005C
:1005C0002030B400B31DE82A3311B314B31FB310A5
:1005D00030303602031DF52A7708B6002030B5000A
:1005E000B31DE82AB310B31F3310331DFB2A3408A0
:1005F0000C1EF82A9900B31C012B35080C1EFE2A8C
:100600009900331C072B36080C1E042B9900370861
:100610000C1E082B99008A110A12512B8401831396
:100620001F308305193083169900A630980090304A
:1006300083129800AD01AC01AB01AA0183161F140F
:100640009F141F159F1107309C008312A701A8015A
:1006500083168C16C03083128B0483160108C739A9
:100660003838810083128101B530900083160C1454
:10067000C03083128B0430080A3C031D5F2B010835
:10068000AE002E08B2000C30B300672A7808B10023
:100690002E300C1E492B99003108B2001F30B300D8
:1006A000A32A0D300C1E522B99000A300C1E562B1B
:1006B00099002E08AF00B0018F018E0181013B2B04
:0206C0006300D5
:02400E00713F00
:00000001FF
;PIC16F877A
;CRC=7F77  CREATED="12-jun.-20 14:02"
