:1000000001308A0047290000FF00030E8301A10090
:100010000A08A0008A010408A2007708A300780853
:10002000A4007908A5007A08A600831383128B1E0A
:100030001B280B192C28220884002308F700240809
:10004000F8002508F9002608FA0020088A00210E89
:100050008300FF0E7F0E09008A110A122F288101EA
:100060000B118A110A121B28C330EC317536613727
:10007000E43720387536F3372E172E050000831627
:1000800003178C170C140000000083120C087F3932
:10009000031985280313AA0003170D080313AB00E7
:1000A00003170F080313AC002A080C1E55289900EB
:1000B0002B0803178D0003132C0803178F008316DA
:1000C0008C170C140000000083120C0D0E0D7F39EC
:1000D000031985280313AA0003170D080313AB00A7
:1000E00003170F080313AC002A080C1E752899008B
:1000F0002B0803178D0003132C0803178F008D0A9C
:1001000003198F0A03133F28031703138A110A12D6
:100110006E292B3084008313000803199D280130B9
:10012000F800F701F70B9228F80B91284A30F700F6
:10013000F70B98289B28800B8F288A110A127429A4
:10014000F701F8012A0803102B18F707F70CF80C31
:10015000AB18F707F70CF80C2B19F707F70CF80C8E
:10016000AB19F707F70CF80C2B1AF707F70CF80C7C
:10017000AB1AF707F70CF80C2B1BF707F70CF80C6A
:10018000AB1BF707F70CF80C8A110A127D2931080E
:10019000F80130020318CF283008F700DB28F701F8
:1001A0000830B200B00DF70D310877020318F700E0
:1001B000F80DB20BD228080020302B1E3030AC00D6
:1001C0002A08F700AA1FEB28F709F70A7708AA0000
:1001D0002D30AC00AB172A08B0006430B100C72046
:1001E0007708AA0030307807AD002A08B0000A303E
:1001F000B100C72030307707AF0030307807AE004D
:100200002C08F700AB1D0629AB1F2B112B1A132945
:10021000AB1F2E292B192E297708AD00AB182E29DC
:100220007708AE002E2930302D02031D2E297708C5
:10023000AD002030AC00AB1D21292B11AB14AB1F3E
:10024000AB1030302E02031D2E297708AE0020306F
:10025000AD00AB1D2129AB10AB1F2B102B1D34297A
:100260002C080C1E31299900AB1C3A292D080C1EB4
:10027000372999002B1C40292E080C1E3D29990076
:100280002F080C1E412999008A110A128429840121
:1002900083131F308305193083169900A630980008
:1002A00090308312980083161F149F141F159F11FE
:1002B00007309C008312A701A80183160108C739E3
:1002C0003838810083128B16C0308B0481013430A2
:1002D00003178D0000308F0003133F288101283061
:1002E000AA00FA30AB008928AA0B71290108A900DD
:1002F0002908AA000630AB00A0287808A900290820
:10030000AA001F30AB00DC280D300C1E8529990097
:0C0310000A300C1E89299900672963003F
:02400E007A3FF7
:00000001FF
;PIC16F877A
;CRC=6ADA  CREATED="22-may.-20 10:21"
