:1000000002308A00712A0000FF00030E8301A10064
:100010000A08A0008A010408A2007708A300780853
:10002000A4007908A5007A08A600831383128C30F7
:100030008400801E1D288C1A2E2822088400230884
:10004000F7002408F8002508F9002608FA0020081F
:100050008A00210E8300FF0E7F0E09008A110A120A
:10006000D329F701F801F901FA01C301C401C5015F
:10007000C6014208410440043F0403196F282030A0
:10008000C7000310BB0DBC0DBD0DBE0DC30DC40DCF
:10009000C50DC60D42084602031D582841084502F9
:1000A000031D582840084402031D58283F084302F6
:1000B000031C69283F08C3024008031C400FC40208
:1000C0004108031C410FC5024208031C420FC6022F
:1000D0000314F70DF80DF90DFA0DC70B4128433045
:1000E0008400831308000408B3003208B500031924
:1000F00005293108BE003008BD002F08BC002E08BD
:10010000BB00C201C1012030C0008230BF003B08EB
:100110000319F728C3003F080319F728C30703187A
:1001200098287F30C302031CF7280319F7289C285E
:100130008130C3070318F7284308F700F801F901D5
:10014000FA013C08C700C7173D08C6003E08C500B5
:100150001830C300C401451CC5284208FA07031C17
:10016000B728F90A031DB728F80A0319C41741086C
:10017000F907031CBE28F80A0319C4174008BD007C
:10018000BD173D08F8070318C417C40DF80CF90C87
:10019000FA0CC70CC60CC50C0310C30BAA280130FF
:1001A000F7070318F728F81BDC28C70DFA0DF90D1F
:1001B000F80DF7030319F728C71FED28FA0A031DE6
:1001C000ED28F90A031DED28F80A031DED28F80CA7
:1001D000F90CFA0CF70A0319F7283C08C400400888
:1001E000C406C41FF528F817FB28F813FB28F701ED
:1001F000F801F901FA017A08B1007908B00078082D
:10020000AF007708AE00B50B79283108BE00300882
:10021000BD002F08BC002E08BB003B08B63CBB004D
:10022000FA013C08BF00BC170310BC0CBD0CBE0C8F
:10023000FA0CF90CF80CF70CBB0B1429BF1F2B2977
:10024000F709F809F909FA09F70A0319F80A03196D
:10025000F90A0319FA0A7A08B1007908B000780897
:10026000AF007708AE00B11F4229B303B316AE0941
:10027000AF09B009B109AE0A0319AF0A0319B00AF0
:100280000319B10A3B30BA009A30B900CA30B8003D
:10029000B7010A30B50032080319B30A3108BE00AD
:1002A0003008BD002F08BC002E08BB003A08C20071
:1002B0003908C1003808C0003708BF0031200008E5
:1002C000AE00840A0008AF00840A0008B000840A67
:1002D0000008B100FD308407F708031D8229320AA7
:1002E0003502031982293308031984290F3935028D
:1002F00003197C290318B829B31BB829331B842997
:100300002030B3292030B305B31E9329B31232082D
:10031000031DB3037708B3002D300C1E8D299900FF
:100320003308F700B30132083502031DA22977080C
:10033000B3002E300C1E9A2999003308F7002030A4
:10034000B30500303030B31EB329B3123208031D99
:10035000B3037708B3002D300C1EAC299900330885
:10036000F700B3013030F70777080C1EB529990064
:100370003A08BE003908BD003808BC003708BB0089
:10038000C201C101C0010A30BF0031207A08BA00A1
:100390007908B9007808B8007708B700B50B4E297E
:1003A0008A110A12532A8C1ED3291A08A900313047
:1003B0002902F73E0318602A093E642A8316861331
:1003C00083128617602A8316861383128613602A87
:1003D0008316061383120617602A831606138312E8
:1003E0000613602A83161F109F101F119F111F13E1
:1003F00083121F179F1783169F1783121F14003035
:10040000F8001F08C73978049F001030F700F70B79
:10041000072A00001F151F190B2A1E08FA00831651
:100420001E088312AE007A08AF0003102F0CFA00EA
:100430002E0CF9007908AE007A08AF008E30F70074
:100440002F08F8002E08F900FA01F808031D322AD7
:100450007908F800F9010830F702F808031D322A7C
:10046000F7013A2A0310F81B392AF90DF80DF703A2
:10047000322AF8137A08AD007908AC007808AB008E
:100480007708AA0020300C1E432A9900C930840046
:100490002D08B1002C08B0002B08AF002A08AE00D0
:1004A0000230B20073280D300C1E542A99002030FF
:1004B0000C1E582A99000A300C1E5C2A9900602AEA
:1004C0008C128A110A121D280A108A140A11820736
:1004D000DE29E329E829ED29602A602A602A602ABA
:1004E000F229840183131F30830519308316990084
:1004F000A6309800903083129800AD01AC01AB019A
:10050000AA0183161F149F141F159F1107309C000A
:100510008312A701A80183168C16C03083128B04A6
:04052000902A6300BA
:02400E00713F00
:00000001FF
;PIC16F877A
;CRC=5C08  CREATED="14-may.-20 14:36"
